:100000000C945F020C9497020C9497020C94970244
:100010000C9497020C9497020C9497020C949702FC
:100020000C9497020C9497020C94B01E0C946C1EC6
:100030000C94AD1F0C9497020C9497020C949702A9
:100040000C9497020C9497020C9497020C949702CC
:100050000C9497020C94891F0C9497020C949702AD
:100060000C9497020C9497020C9497020C949702AC
:100070000C9497020C9497020C9497020C9497029C
:100080000C94D41F0C9497020C9497020C94970232
:100090000C9497020C9497020C9497020C9497027C
:1000A0000C9497020C9497020C94970207634236C3
:1000B000B79BD8A71A39685618AEBAAB558C1D3CF9
:1000C000B7CC5763BD6DEDFD753EF6177231BF00BD
:1000D0000000803F08000000BE922449123EABAAF7
:1000E000AA2ABECDCCCC4C3E00000080BEABAAAA52
:1000F000AA3E00000000BF000000803F000000009A
:1001000000084178D3BB4387D1133D190E3CC3BDD2
:100110004282AD2B3E68EC8276BED98FE1A93E4C7F
:1001200080EFFFBE01C4FF7F3F000000000005011B
:100130000980A101850319012AB700150126B7001E
:10014000950175108100C0050C0901A101850419F4
:10015000012AA002150126A002950175108100C098
:1001600005010906A1018506050719E029E7150023
:1001700025019508750181020507190029EF150071
:10018000250195F0750181020508190129059505DC
:1001900075019102950175039101C00660FF096127
:1001A000A1010962150026FF00952075088102094A
:1001B00063150026FF00952075089102C00501090E
:1001C00006A101050719E029E71500250195087525
:1001D0000181029501750881010507190029FF15A4
:1001E0000026FF00950675088100050819012905FC
:1001F0001500250195057501910295017503910181
:10020000C00000000000000000000000000000002E
:1002100000000000000000000000000000000000DE
:1002200000000000007E0F00D4FFFFFFC7000000A9
:100230007800000000000000002A2B2800000000C9
:100240000000000000000000000000002900000085
:10025000002C1E3420212224342627252E362D372B
:1002600038271E1F202122232425263333362E37FC
:10027000381F0405060708090A0B0C0D0E0F101194
:1002800012131415161718191A1B1C1D2F313023A1
:100290002D350405060708090A0B0C0D0E0F101169
:1002A00012131415161718191A1B1C1D2F3130356F
:1002B0004C2B0014001A000800150017001C001831
:1002C000000C00120013002A002900040016000789
:1002D0000009000A000B000D000E000F003300346F
:1002E00000E1001D001B00060019000500110010B0
:1002F000003600370038001E7C0000E000E200E31A
:1003000000777C2C002C00787C5000510052004F6C
:100310000035021E021F02200221022202230224B3
:10032000022502260227022A004C003A003B003C2C
:10033000003D003E003F002D022E022F0230023110
:1003400002010040004100420043004400450032E9
:100350000264024A004D0001000100010001000199
:10036000000100010001000100AB00AA00A900AEDD
:100370000035001E001F0020002100220023002461
:10038000002500260027002A004C003A003B003CD4
:10039000003D003E003F002D002E002F00300031B8
:1003A000000100400041004200430044004500328B
:1003B0000064004B004E000100010001000100013B
:1003C000000100010001000100AB00AA00A900AE7D
:1003D000000100007C027C0100010001000100011D
:1003E000000100010001004C0001000100010001BA
:1003F00000010001000100010001000100010001F5
:1004000000010001000100010001000100010001E4
:1004100000010001000100010001000100010001D4
:1004200000010001000100010001000100010001C4
:100430000009025B00030100A0FA090400000103A7
:100440000101000921110100012244000705810377
:100450000800010904010002030000000921110144
:100460000001222200070582032000010705030383
:10047000200001090402000103000000092111010C
:100480000001226D00070584032000011201000213
:1004900000000008A80301AE0400010200010E03E1
:1004A00050006C0061006E0063006B0000000A03E6
:1004B0004F004C004B0042000000040309041124CB
:1004C0001FBECFEFDAE0DEBFCDBF04B603FE18C01B
:1004D0008091D9059091DA05A091DB05B091DC05FA
:1004E0008730904BA740B04B59F41092D905109229
:1004F000DA051092DB051092DC05E0E0F8E30995DF
:1005000025E0A6E6B4E001C01D92A93DB207E1F7DF
:1005100014E0A0E0B1E0EAE0F6E502C005900D923B
:10052000A636B107D9F70E9483210C94A82A0C940F
:100530000000482F20917F059091460557E0291330
:1005400002C080E0089530E0529FF001539FF00D0B
:100550001124E95BFA4F8181681306C0808148133A
:1005600003C085818111EECF2F5F3F4F2770E7CF0A
:10057000E8EDF0E080818E7F80831092E20010929F
:10058000DA001092E100A0EEB0E08C9181608C93D3
:1005900080818F77808319BCA7EDB0E08C918E7F2E
:1005A0008C9380818F7E808310921705089520910F
:1005B000E4003091E50095E6A9012091EC00822F3E
:1005C000817020FF06C08091E80080FF06C080E0B7
:1005D00008952091E80022FD1AC080913C058823EF
:1005E00089F0853089F08091EB0085FD0FC0209166
:1005F000E4003091E50042175307F9F29150E1F61B
:1006000084E0089582E0089583E0089581E00895EC
:1006100080913E0587FF13C08091E80082FF06C0ED
:100620008091E8008B778093E80004C080913C05BE
:100630008111F2CF089580913C058823D9F38091F0
:10064000E80080FFF8CF8091E8008E77ECCF982FFC
:100650009093E900242F762F50E0891731F07091A4
:10066000EC002091ED005091F00021FD07C09F5F4C
:10067000973071F78093E90081E008953091EB00A5
:100680003E7F3093EB003091ED003D7F3093ED00E5
:100690003091EB0031603093EB007093EC002093CD
:1006A000ED005093F0002091EE0027FDE0CF80E0B8
:1006B0000895B0E0A0E0EFE5F3E00C944B25C8ED21
:1006C000D0E088818F7E8883E7EDF0E080818160D3
:1006D000808384E082BF81E08093170588818E7FCC
:1006E000888302EE10E0F80110821092DA0081EEA9
:1006F000C82ED12CF601108288818F77888388815B
:100700008068888388818F7D888319BC10923C051E
:1007100010923D0510923B0510923A0590EEE92E9D
:10072000F12CF70180818B7F8083888181608883B1
:1007300042E060E080E00E942703F60180818E7F26
:100740008083F801808181608083808188608083DC
:10075000F70180818E7F8083888180618883CDB717
:10076000DEB7E8E00C946725FC0180914405909188
:10077000450586179707A0F06115710529F490913A
:10078000E8009E779093E80090E06115710551F4C0
:10079000911108C08091E80082FF34C080E0089584
:1007A000BC01F2CF80913C058823C1F18530C1F1B5
:1007B0008091E80083FD30C08091E80082FDEACF9F
:1007C0008091E80080FFE1CF8091F3002091F2005A
:1007D000382F6115710519F02830310558F091E076
:1007E0002830310509F090E02091E8002E77209321
:1007F000E800CBCF81918093F100615071092F5FA8
:100800003F4FE7CF80913C05882341F0853041F090
:100810008091E80083FFBECF81E0089582E00895D3
:1008200083E0089508958091190508959C014FB7BC
:10083000F8948091110590911205A0911305B09143
:1008400014054FBF821B930B08952FB7F894809126
:10085000110590911205A0911305B09114052FBFB9
:100860000895A3E0B0E0E7E3F4E00C945125209173
:100870000E0530910F0528173907A1F090930F0549
:1008800080930E05E0910C05F0910D05309751F025
:1008900024E029839B838A830680F781E02DCE01A3
:1008A000019609952396E2E00C946D25A3E0B0E053
:1008B000ECE5F4E00C94512520910A0530910B05EC
:1008C00028173907A1F090930B0580930A05E09152
:1008D0000C05F0910D05309751F023E029839B839F
:1008E0008A830680F781E02DCE0101960995239633
:1008F000E2E00C946D25E0910C05F0910D05309728
:1009000029F00190F081E02D0995089580E0089587
:10091000E1E7F0E080818D7F8083E0E9F0E0808195
:100920008F7380830895CF92DF92EF92FF926B01D5
:100930007C0120E030E0A9010E94032781110AC058
:10094000809190008F7380939000FF90EF90DF90E4
:10095000CF90089580919000806880939000C0921D
:100960000005D0920105E0920205F092030520E017
:1009700030E040E051E4C701B6010E94C4289B0169
:10098000AC0160E074E284E79BE40E9408276B01FD
:100990007C010E948127709397006093960060917C
:1009A000990370E090E080E00E94B227A7019601D1
:1009B0000E94C42820E030E048EC52E40E9408275E
:1009C0000E9481277093990060939800BECF809118
:1009D000D702811122C01092D8050E94880410927B
:1009E0008F05109290051092840510928305E8E916
:1009F000F5E080E090E0A0E8BFEB118210828283F6
:100A00009383A483B58317821682389625E0E83D48
:100A1000F20799F781E08093D70208958091080545
:100A200081110E94E70408958554990BBC01990F28
:100A3000880B990B0E94B22720E030E040E451E49B
:100A40000E9408279B01AC0160E070E080E090E428
:100A50000E94312920E030E04CED53E40E94C4288C
:100A6000089580E00895F894E82FE295EF70F0E0A3
:100A700031A1282F2F7081E090E001C0880F2A95C6
:100A8000EAF7982F9095932391A392A1892B82A3A3
:100A9000789408959091150592FF10C041E0282F99
:100AA0002471243009F040E031E0282F28712830EB
:100AB00009F030E0431711F02CE0822793FF10C0BB
:100AC00041E0282F2471243109F040E031E0282F43
:100AD0002871283109F030E0431711F02CE082270B
:100AE0003091160530FF10C051E0282F21712130C0
:100AF00009F050E041E0282F2871283009F040E04B
:100B0000541711F029E0822731FF10C041E0282F4F
:100B10002171213109F040E031E0282F287128317E
:100B200009F030E0431711F029E0822794FD877E19
:100B3000089582389105B9F1B0F48133910509F433
:100B40007DC048F48932910509F46DC08A3291055F
:100B500009F47BC008958533910509F45FC089339A
:100B6000910509F10895833E9105D9F138F4803E4D
:100B7000910529F1823E910579F10895863E91050E
:100B8000D9F1873E910509F43EC0843E910541F5B7
:100B90002091160521FF24C08091150584FD19C000
:100BA00087EE90E0089520911505237009F05AC052
:100BB0002091160523FF14C089E290E0089520914A
:100BC000150520FD38C03091160530FF09C024FFFF
:100BD00043C090E080E008952091150522FDF7CFF5
:100BE00008952091150522FD3AC03091160530FD7B
:100BF00039C024FFF5CFEDCF2091150523FFF0CFAD
:100C000024FDE7CFCDCF2091150523FD2EC03091D7
:100C1000160531FFEECF84EE90E008952091150582
:100C200025FFDECFC9CF2091150525FD21C02091DC
:100C3000160523FFD5CF89E390E0D2CF209115058B
:100C400026FFCECF8AE290E008952091150526FF79
:100C5000C7CF81E390E0089583EE90E0089582EE9F
:100C600090E0089580EE90E0089586EE90E008957B
:100C700085E390E008951F93CF93DF930E94990539
:100C8000EC01C11580E5D807F0F5C11580E4D8075F
:100C900008F09CC0C03ED10520F5CD3CD10508F040
:100CA00082C0C83AD10578F4C53AD10508F073C0BE
:100CB000C130D10519F1209709F1C430D105F0F404
:100CC000D0E0C0E01BC0C33CD105D0F7C85AD0E08B
:100CD000CC0FDD1FC054DC4F0990D881C02DD464E7
:100CE0000DC0C11580E2D80708F0D1C0C11581E060
:100CF000D80708F05AC0C83ED10510F7CE01DF91E1
:100D0000CF911F910895C03682E5D80718F5C034F9
:100D100082E5D80708F06BC0C03282E5D80708F03A
:100D20005FC0C11582E5D80708F497C02C2F26951F
:100D3000269580E2289F900111248C2F8370C1E0BA
:100D4000D0E002C0CC0FDD1F8A95E2F7C22BD32B77
:100D5000DD68D4CFC03A82E5D80760F4C03882E5B8
:100D6000D80708F459C0CF71D0E0DC2FCC27C46F6E
:100D7000D06AC4CFC03C82E5D80708F462C0C03E48
:100D800082E5D80708F09CCFDC2FCC27CC27DF7179
:100D9000C06FD06AB3CFC55AD0E0C354DC4FC8810E
:100DA000D0E0D064ABCFD065A9CF8D2F0E944A058B
:100DB000182FCE0199270E949905C12FD0E0DC2F72
:100DC000CC27CC27DF71C82BD92B98CFCE01992700
:100DD0000E949905CC27DF70C82BD92BD06A8ECF03
:100DE000CF71D0E0DC2FCC27C16FD06A87CF2C2FFA
:100DF00026952695277080E2289F900111248C2F3C
:100E00008370C1E0D0E002C0CC0FDD1F8A95E2F70D
:100E1000C22BD32BDC6872CF2C2F269526952770FA
:100E200080E2289F900111248C2F8370C1E0D0E0D4
:100E300002C0CC0FDD1F8A95E2F7C22BD32BDA68F4
:100E40005DCF8C2F8F710E944A05C82FD0E0DC2F18
:100E5000CC27CC27DF71D06251CF8C2F8F710E94AD
:100E60004A0555E0D695C7955A95E1F7CF70D0E081
:100E7000DC2FCC27282F30E084FF05C044E0220F70
:100E8000331F4A95E1F7C22BD32BD06937CF8D2F73
:100E90008F710E944A05182FCE0199270E9499054B
:100EA000C12FD0E0DC2FCC27CC27DF71C82BD92B6A
:100EB000D2CF80959091C80498239093C804089548
:100EC000909198039923D1F09091150597FF16C042
:100ED000E82FE695E695E695EE31E0F4F0E0E85986
:100EE000FB4F282F277081E090E001C0880F2A95E2
:100EF000EAF780959281892382830895EAE6F4E0F7
:100F00009191891303C0DF0111971C9294E0E0379F
:100F1000F907B1F70895909198039923C1F0909142
:100F2000150597FF14C0E82FE695E695E695EE3196
:100F3000F8F4F0E0E859FB4F877021E030E001C0A1
:100F4000220F8A95EAF78281822B82830895AAE68E
:100F5000B4E0EFEF90E02D91821751F0EF3F19F4DC
:100F6000211101C0E92F9F5F9630A9F7EF3F09F4E7
:100F700008950E2E000CFF0BE859FB4FE6CF809131
:100F80007F0590914605981301C008958F5F877083
:100F9000FACF292F943078F58C3068F590E03CE05A
:100FA000239F800D911D1124682F677023E0969573
:100FB00087952A95E1F7FC01EE0FFF1FE80FF91F57
:100FC000E457FB4F50E040E080E0219130E0062EF6
:100FD00002C0369527950A94E2F721703327042E34
:100FE00001C0220F0A94EAF7822B4F5F5F4F433014
:100FF000510559F7089580E00895292F943098F508
:101000008C3088F590E03CE0239F800D911D1124E9
:10101000282F277041E001C0440F2A95EAF723E00A
:10102000969587952A95E1F7FC01EE0FFF1FE80FD3
:10103000F91FE457FB4F30E020E070E05191DF01F1
:101040001197CB01022E02C0969587950A94E2F77C
:10105000817081958527842385278C932F5F3F4F4F
:101060002330310559F708958093D704089590915E
:10107000D70421E030E0F90101C0EE0F8A95EAF7CC
:10108000D90102C0AA0FBB1F6A95E2F7EA2B01C083
:10109000220F4A95EAF7892F8E23E81305C0292BE2
:1010A000822F0E943408089520952923F9CF21E04A
:1010B00030E001C0220F8A95EAF720958091D7048D
:1010C00082230E94340808959091A5048095892375
:1010D0008093A504282F277069F4891759F09091FF
:1010E000160592FF07C08695869586950E9457083B
:1010F0001092A504089521E030E001C0220F8A95E6
:10110000EAF78091D704822B0E94340808958093D7
:10111000C9040895CF92DF92EF92FF920F931F932D
:10112000E091D805EE2309F414C2E15088E0E8020A
:10113000F0011124E856FA4FC280D380E480F58094
:1011400020E030E0A901C701B6010E94032718166C
:101150000CF0FFC180919605909197050E941604AE
:101160008C0164E670E00E940C25E0919505E93061
:1011700038F4F0E0E655F54D0C94342510929405C2
:1011800080919305882371F10E942504BC0190E0B1
:1011900080E00E94B02720E030E048E451E40E9463
:1011A000082720E030E040EA51E40E94F8270E943E
:1011B0007A27660F771F660F771F6B5E7B4FFB01E9
:1011C000608171818281938120E030E040E05FE3C3
:1011D0000E9431299B01AC01C701B6010E94C428BD
:1011E0006B017C01C701B6011F910F91FF90EF9039
:1011F000DF90CF9008951092940581E0809393053D
:10120000BFCF109294056431710538F46A307105CE
:1012100040F089E180939903B3CF88E1693C71057F
:10122000C8F38CE0F7CF1092940520E030E040EA5C
:1012300052E4C701B6010E94032787FDA1CF20E039
:1012400030E040E253E4C701B6010E94032787FF64
:1012500028C00E94C42568E270E00E942025BC01DD
:10126000645C7F4F072E000C880B990B0E94B227FD
:101270006B017C010B30110508F498C00531110594
:1012800008F0B1C02EEC2003C001219F900D112465
:10129000865E9B4F6AE070E00E940C256093990384
:1012A0006FCF20E030E040EA53E4C701B6010E946E
:1012B000032787FF24C00E94C42568EE73E00E94C4
:1012C0002025BC0168517C4F072E000C880B990B20
:1012D0000E94B2276B017C010630110508F466C03C
:1012E0000531110508F07FC02EEC2003C001219FBD
:1012F000900D1124865E9B4F6FE070E0CDCF20E013
:1013000030E040E254E4C701B6010E94032787FFA2
:1013100023C00E94C42560ED77E00E942025BC0117
:101320006854744F072E000C880B990B0E94B2274B
:101330006B017C0100311105C8F10531110508F080
:1013400052C02EEC2003C001219F900D1124865E17
:101350009B4F65E070E0A0CF20E030E040EA54E42D
:10136000C701B6010E94032787FF0ACF0E94C42548
:1013700060ED77E00E942025BC016854744F072E71
:10138000000C880B990B0E94B2276B017C01043280
:10139000110560F00333110530F52EEC2003C00178
:1013A000219F900D11248A50964FA6CF82E332CF11
:1013B00081E0809394056431710590F420E030E081
:1013C00040E85EE36A30710520F020E030E040E064
:1013D0005FE3C701B6010E94C4286B017C0121CFE5
:1013E000693C710518F010929903CACE90E080E034
:1013F0000E94B02720E030E040EA51E40E949626A7
:1014000020E030E044E353E40E9408279B01AC0154
:101410000E94C42820E030E048E451E40E94C4283F
:101420000E9481278CE0861BF5CE81E08093940595
:101430002AE0269FC001279F900D112468EB7BE0D6
:101440000E940C258C5D954097FF03C09195819576
:101450009109BC017727072E000C880B990B0E947D
:10146000B2272EE333EC4EE259E30E94C42820E079
:1014700030E040EC5EE30E9497260E9481270ECF69
:1014800081E080939405C80183709927892B19F115
:10149000C8018170992724E6289FB001299F700D0B
:1014A000112490E080E00E94B02720E030E040E08E
:1014B0005EE30E94C42820E030E040E45FE30E9445
:1014C00097260E9481276093990307701127012BAB
:1014D00009F056CE88CF82E380939903F6CF81E05E
:1014E0008093940582E3809399030C3F1A4308F498
:1014F00047CE90E080E00E94B02720E030E047E156
:1015000053E40E94962620E030E04AE754E40E942B
:10151000082720E030E048E452E40E94C42820E09C
:1015200030E040EA51E40E94F8270E947A27660FD3
:10153000771F660F771F6B5E7B4FFB012081318128
:1015400042815381C701B6010E94C4286B017C010E
:1015500017CEC12CD12C760145CE0F931F93CF937C
:10156000DF938B01EA0190913C05943061F5809303
:10157000E9008FEF9091E800815095FD06C095ED50
:101580009A95F1F700008111F5CF8091E80085FF71
:101590001AC00E94D702811111C08091E80085FD18
:1015A00006C08091E8008E778093E800F2CFF801C2
:1015B00081918F018093F100219779F78091E80064
:1015C0008E778093E800DF91CF911F910F9108955E
:1015D00043E050E0BC0184E00E94AD0A0895CF933F
:1015E000DF93EC0180919803811111C048E050E035
:1015F000BE0181E00E94AD0A80E2FE01AAE1B5E0F1
:1016000001900D928A95E1F7DF91CF910895809135
:10161000150587FF05C040E284E050E0BE01EACF37
:1016200048E081E0FACF81E08093E00080E280939F
:10163000D8001092C9008FE19EE40197F1F700C035
:10164000000087E090EBDC018093D9059093DA05E8
:10165000A093DB05B093DC0588E19CE00FB6F8941D
:10166000A895809360000FBE90936000FFCFCF934A
:10167000DF93C9EAD1E060E0CE010E94FF25219608
:10168000C11584E0D807B9F7DF91CF9108951F9372
:10169000CF93DF93122F8430E0F46430D0F44C30D9
:1016A000C0F4C42FD0E0CC0FDD1F98E1699FC00DBE
:1016B000D11D112490E6899FC00DD11D1124632FE7
:1016C000CE0189960E94FF25612FCE018A960E9445
:1016D000FF25DF91CF911F910895AF92BF92CF92D6
:1016E000DF92EF92FF921F93CF93DF9381EBC82E8F
:1016F00082E0D82ED0E07601C0E014C0F50125913B
:101700003491412F6C2F8D2F0E94470B82E0A80E41
:10171000B11C1F5F1C3091F788E1E80EF11CCF5F10
:10172000C43019F0570110E0E9CFDF5F80E6C80E42
:10173000D11CD43001F7DF91CF911F91FF90EF9032
:10174000DF90CF90BF90AF900895CF93C82F6FEFE9
:10175000811163E285E290E00E94FF256FEFC111E5
:1017600061E186E290E00E94FF256FEFC11167E121
:1017700087E290E00E94FF25CF91089580E00E94CB
:10178000A50B60E088E290E00E94FF250E946D0BAF
:101790000E94370B81E00E94A50B08950F931F93C1
:1017A000CF93DF93843030F5643020F54C3010F562
:1017B000C42FD0E0CC0FDD1F28E1629FC00DD11DEA
:1017C000112430E6839FC00DD11D1124CE018996CE
:1017D0000E94E125082F10E0102F0027CE018A96E5
:1017E0000E94E1259801282BC901DF91CF911F911B
:1017F0000F91089590E080E0F8CF462F743040F4C8
:101800006C3030F4843020F4672F0E94CE0B0895A2
:1018100090E080E00895CF92DF92FF920F931F93A4
:10182000CF93DF936C010091D7048091C904082BFA
:10183000C3E0D0E010E0FC2EC8010C2E02C095954C
:1018400087950A94E2F780FD0CC02197A0F7F12C50
:101850008F2DDF91CF911F910F91FF90DF90CF904F
:101860000895B6018C2F0E94FD0B0E943B06019744
:1018700061F3EECFCF93DF93EC010E940B0CBE011E
:101880000E94FD0B0E943B06DF91CF910895FC0161
:1018900024812223C1F0808191810E943A0C92958B
:1018A0009F70963091F058F4925F9F70923058F488
:1018B000803F19F030F4883E30F481E008959A5F5B
:1018C000F4CF843FD1F380E00895883EB0F3813FA8
:1018D000D1F7F3CFA6E0B0E0E0E7FCE00C945025B0
:1018E00049835A8349815A819923A1F0222391F097
:1018F000CA010E940B0C182F682F89819A810E94BF
:10190000FD0769817A81812F0E94FD0B2696E3E015
:101910000C946C25CA010E94C907182FF2CF85E2EA
:1019200090E00E94E125833289F486E290E00E94F3
:10193000E125813159F487E290E00E94E12591E0B0
:10194000873109F090E0892F8170089580E0FCCF05
:101950009091160592FB222720F9281779F080FB39
:1019600092F990931605609115057091160584E023
:1019700090E00E941D2682E00E946408089590E095
:1019800080E00E94E925863E9E4F19F40E948F0C4C
:10199000089580E008958091C8049091C704892B30
:1019A000809368049091C6049923A1F0892B8093B9
:1019B0006804809198038823E1F18091150587FFE1
:1019C00038C08EE1EAE6F4E090E08150A0F5911194
:1019D0001092C60440E250E066EA74E088E694E0C3
:1019E0000E94D425892B21F180E2E8E6F4E0A6EA02
:1019F000B4E001900D928A95E1F7E0910C05F09129
:101A00000D053097A9F080919803882359F08091B3
:101A1000150587FF07C0809168048093690486E0FC
:101A2000809368040280F381E02D88E694E00995B4
:101A3000089586E0C7CF2191222339F29F5FC5CF59
:101A40001092C80480919803EAE6F4E08823B1F08C
:101A50008091150587FF12C08EE1DF011D928A95E6
:101A6000E9F790E080E00E94560490E080E00E9458
:101A700031041092C7040E94CB0C089586E0EDCF8C
:101A8000AAE2B0E0E6E4FDE00C9450258EE395E098
:101A90002091F100DC012D93CD01B5E086349B0748
:101AA000B9F780913F05833009F472C0B8F48130F2
:101AB00009F449C0823009F4B3C08091E80083FF83
:101AC0008BC280913E0590913F059A3008F084C208
:101AD000E92FF0E0ED54F54D0C9434258A3009F4EB
:101AE0008EC08B3009F471C0893039F780913E0582
:101AF000813219F78091420590914305009711F0CA
:101B00000297D9F68091E800877F8093E800809162
:101B1000E80082FF38C09091F3008091F2000297B4
:101B200031F48091F100813011F0863021F4809100
:101B3000F100809319058091E8008B778093E8008D
:101B40000E940803BACF80913E05813A09F0B5CFD3
:101B50008091E800877F8093E80080914205909112
:101B60004305892B61F460E28AE195E070E00E9410
:101B7000B4038091E8008B778093E8009ECF60E00B
:101B800090E080E0F3CF80913C058111C0CF95CFEC
:101B900080913E05813A09F090CF80914205909165
:101BA0004305892B09F089CF8091E800877F8093D6
:101BB000E8008091E80080FFFCCF8091980380933B
:101BC000F1008091E8008E77B9CF80913E05813297
:101BD00009F073CF8091420590914305892B09F05C
:101BE0006CCF8091E800877F8093E8000E94080313
:101BF00080914005809398030E94200D5ECF8091D4
:101C00003E05813209F059CF8091E800877F8093AB
:101C1000E8000E94080380914105809318054DCF8C
:101C200080913E05813A09F048CF8091E800877F96
:101C30008093E8008091E80080FFFCCF8091180538
:101C4000BECF803899F0823809F0C6C18091420534
:101C50008F70873008F0C0C18093E9008091EB005D
:101C600085FB882780F91092E90006C080913A052B
:101C700090913B05911182609091E800977F90933D
:101C8000E8008093F1001092F1008091E8008E77D7
:101C90009FC1882309F48DC1823009F09DC18091D4
:101CA0004005811190C1809142058F702FEF280F60
:101CB000263008F091C18093E9002091EB0020FFCD
:101CC00082C1933031F48091EB0080628093EB000D
:101CD0007AC19091EB0090619093EB0021E030E0AD
:101CE00001C0220F8A95EAF72093EA001092EA00D9
:101CF0008091EB008860EACF81116EC110914005A0
:101D00001F778091E3008078812B8093E30080919E
:101D1000E800877F8093E8000E9408038091E80034
:101D200080FFFCCF8091E30080688093E30082E035
:101D3000111183E080933C054FC18058823008F038
:101D40004BC120914005309141052C3DE3E03E0719
:101D5000A1F583E08A838AE289834FB7F894DE0194
:101D6000139620E03EE051E2E32FF0E0509357005D
:101D7000E49120FF03C0E295EF703F5FEF708E2F7C
:101D800090E0EA30C0F0C7968D939D932F5F243189
:101D900059F74FBF8091E800877F8093E8006AE29F
:101DA00070E0CE0101960E94B4038091E8008B7729
:101DB0008093E80011C1C096E7CF809142059091D1
:101DC0004305432F55274330510509F44AC078F5A0
:101DD0004130510509F47AC08BE590E0E1E3F4E08D
:101DE0004230510509F0F8C02091E800277F209388
:101DF000E80020914405309145058217930708F4C7
:101E00009C0140E02115310509F065C0411163C016
:101E10008091E80082FDC9CF80913C05882329F29A
:101E2000853019F28091E80083FFF2CFBECF4132B6
:101E3000510509F43CC04232510509F0CDC0833050
:101E4000910508F0C9C0FC01EE0FFF1FE75FFB4FD3
:101E50000190F081E02D8A5F9B4FDC018C9190E036
:101E60001AC0332721303105D1F02115310561F039
:101E70002230310509F0B0C0EEE9F4E0E4918E2F94
:101E800090E0EEE9F4E007C0EAEBF4E0E4918E2F95
:101E900090E0EAEBF4E0009709F49EC0A5CFEEEAEB
:101EA000F4E0E4918E2F90E0EEEAF4E0F4CF83309A
:101EB000910508F091C0880F991FFC01E15FFB4F6D
:101EC0000190F081E02D89E090E08ECF82E190E0FA
:101ED000ECE8F4E089CF80913C05882309F465CFD4
:101EE000853009F462CF8091E80083FD5ECF809158
:101EF000E80082FD8DCF8091E80080FF83CF909134
:101F0000F3008091F2002115310519F08830910518
:101F100050F041E0089709F040E08091E8008E77AA
:101F20008093E8006FCF44914093F10031962150A7
:101F300031090196E8CF803809F04EC08091E80061
:101F4000877F8093E80080913D058093F1009DCECE
:101F5000811142C0109140051230F0F58091E800E7
:101F6000877F8093E80010933D050E9408031123AA
:101F700011F084E005C08091E30087FDFACF81E095
:101F800080933C0542E061EC81E00E94270342E23D
:101F900061EC84E00E94270342E261EC82E00E944F
:101FA000270342E260EC83E00E94270380913C0516
:101FB00013C080914005813079F481E0933009F0BD
:101FC00080E080933B051092E9008091E800877FD4
:101FD0008093E8000E9408038091E80083FF0AC014
:101FE0008091E800877F8093E8008091EB00806219
:101FF0008093EB00AA96E3E00C946C25882321F0F3
:102000000E9459070E94CB0C0895882339F09091C3
:10201000C804982B9093C8040E94CB0C0895882381
:1020200009F44DC0823879F40E947B0481FF47C0D7
:1020300089E30E948B070E94CB0C89E30E94600712
:102040000E94CB0C0895833859F40E947B0480FFD2
:1020500036C083E50E948B070E94CB0C83E5EECF50
:10206000843859F40E947B0482FF29C087E40E94CF
:102070008B070E94CB0C87E4E1CF9CEF980F913A3D
:10208000E8F290E2980F983050F4877091E001C028
:10209000990F8A95EAF7892F0E945907D1CF9BE5BE
:1020A000980F933028F490E080E00E945604089541
:1020B000885A8B3120F490E080E00E94310408952A
:1020C000CF93C82F8823C9F08238C9F40E947B04BB
:1020D00081FD13C089E30E948B070E94CB0C2FEF78
:1020E00087EE93E0215080409040E1F700C000006F
:1020F00089E30E9460070E94CB0CCF91089583383A
:10210000A1F40E947B0480FDF8CF83E50E948B0739
:102110000E94CB0C2FEF81EE94E021508040904044
:10212000E1F700C0000083E5E4CF8438A1F40E9409
:102130007B0482FDE2CF87E40E948B070E94CB0CD8
:102140002FEF81EE94E0215080409040E1F700C0F5
:10215000000087E4CECF8CEF8C0F813A88F5809118
:102160009803882301F18091150587FF1CC0EC2F8F
:10217000E695E695E695F0E0E859FB4F828190E020
:102180004C2F477021E030E002C0220F331F4A95E8
:10219000E2F782239323892B79F08C2F0E9460072A
:1021A0000E94CB0C09C0EAE6F4E08191C817A9F3BC
:1021B00024E0E037F207C9F78C2F0E948B079BCFF2
:1021C00080E28C0F883068F4C77021E030E001C0F5
:1021D000220FCA95EAF78091C804822B8093C80425
:1021E0008ACFEBE5EC0FE33040F4F0E0E354FC4F32
:1021F000808190E00E94560480CFC85ACB3108F00D
:102200007CCFEC2FF0E0EE0FFF1FE054FC4F8081FD
:1022100091810E94310471CF1F93CF93DF93182FC8
:10222000D0E0C0E0893311F4C0E5D0E0812F0E94F6
:102230006010209739F4812F0E940F10DF91CF9109
:102240001F9108958FE99FE00197F1F700C000000A
:102250002197EFCF0F931F93CF93DF93C62FD42FE8
:10226000022FFC0185818823A9F0609382050E94DA
:1022700025049093810580938005C77081E001C09B
:10228000880FCA95EAF70E940510DF91CF911F9140
:102290000F91089580918205681332C08091800566
:1022A000909181050E941604883C910548F510E242
:1022B0001D0FCD17B9F080E28C0F883040F4C77045
:1022C00081E001C0880FCA95EAF70E94FE0F18301E
:1022D00048F481E09D2F977001C0880F9A95EAF726
:1022E0000E940510802F0E940C11183070F6D770D4
:1022F00081E001C0880FDA95EAF70E94FE0FC5CF92
:10230000C77081E001C0880FCA95EAF7F6CFA8E050
:10231000B0E0EDE8F1E10C9447258E010F5F1F4F0F
:1023200088E0F80111928A95E9F796EFE92E93E09B
:10233000F92E6801AA24A394B12CF70181917F01A1
:102340008F3F09F446C0F894E82FE295EF70F0E073
:1023500021A18F70A50102C0440F551F8A95E2F795
:10236000CA01922F982B91A392A18095892382A3D1
:10237000789400C0EAEFF3E021E030E0912C812C6A
:1023800041914F3F09F467C0A42FA295AF70B0E010
:1023900090968C9190E04F7002C0959587954A95E4
:1023A000E2F780FD58C0C901882A992A220F331FFD
:1023B00054E0E630F50721F7F701319780818F3F30
:1023C00011F00E94330580EA8A95F1F7F6019182B7
:1023D0008082F2E0CF0ED11C4AEFE41643E0F4060F
:1023E00009F0ABCF48E050E0B8018FEC94E00E94D8
:1023F000D425892B99F188E0F801AFECB4E0019085
:102400000D928A95E1F781E08093CE040E94250425
:102410009093CD048093CC048091CC049091CD0412
:102420000E9416040597F0F048E050E06FEC74E06D
:1024300087EF94E00E94D425892BC9F088E0EFEC67
:10244000F4E0A7EFB4E001900D928A95E1F781E006
:102450001092CE0408C090E080E0A6CF8091CE0418
:102460008111DACF80E02896ECE00C94632580E0BF
:10247000EFCFA8E0B0E0EFE3F2E10C94512566EE77
:102480007EEF90E080E00E941D2660E082E090E018
:102490000E94FF2560E083E090E00E94FF251092FB
:1024A000C90460E074E184E090E00E941D2660E0D1
:1024B00086E090E00E94FF256FEF87E090E00E94A9
:1024C000FF2540E050E0BA0188E090E00E9411262C
:1024D00060E084E290E00E94FF2560E087E190E008
:1024E0000E94FF2560E08CE090E00E94FF2560E004
:1024F0008DE090E00E94FF2519821A821B821C82C7
:102500001D821E821F82188648E050E068E170E05C
:10251000CE0101960E94EF2540E050E0BA0180E232
:1025200090E00E94112680E00E94A50B0E94BE0B45
:1025300040E050E0BA018FE090E00E94112640E0B8
:1025400050E0BA0183E190E00E9411262896E2E073
:102550000C946D2580919105811141C00E94BF0CA2
:10256000811102C00E94391287E090E00E94E125AB
:1025700080939205E8E9F5E080E090E0A0E8BFEB09
:102580001182108282839383A483B583178216827B
:10259000389625E0E83DF20799F780919105811181
:1025A0000CC00E9488043E9A82E0809390008AE1E9
:1025B0008093910081E0809391050E94E7048091CF
:1025C000920580FF06C063E070E08FE992E00E9410
:1025D000A3130E9425049093860580938505089592
:1025E000B0E0A0E0E6EFF2E10C9446254B015C017F
:1025F0007A018091920580FF85C0809191058111BB
:1026000002C00E94AA1220E030E0A901C501B40175
:102610000E94032787FF04C0B7FAB094B7F8B094BC
:102620007090D805872D8150990B6C01EC01CF3F3C
:10263000DC0709F051C081E0870D893008F480C0C3
:1026400088E08093D80588E995E028E0FC01389679
:10265000DC0101900D922A95E1F7089625E0803D76
:10266000920799F781E08093FF0480939005C091D1
:10267000D805C150DD0B0E942504FE0123E0EE0FBA
:10268000FF1F2A95E1F7E856FA4F918380838282F3
:102690009382A482B582F782E6820E9425049093F9
:1026A0009705809396058091D702882359F18091F0
:1026B00071008260809371008091900080688093A7
:1026C000900080919005882321F00E948A080E9442
:1026D00093041092D70216C08E0133E0000F111F31
:1026E0003A95E1F708561A4FA5019401F801628165
:1026F0007381848195810E94032781111FC0CC15AD
:10270000DD052CF0CDB7DEB7EDE00C946225219607
:1027100088E0F8013896D80101900D928A95E1F78A
:102720000E942504F8019187808782869386A4867B
:10273000B586F786E686085F1F4FE1CF219777CFF2
:102740008093D8058FCFCF92DF92EF92FF92CF93F5
:10275000DF93EC017B018091920580FD09C00E940E
:10276000E704DF91CF91FF90EF90DF90CF90089535
:1027700080919105811102C00E94AA12809190055A
:1027800081110E94E70481E080938F0510928E05ED
:10279000D0938D05C0938C05F0928B05E0928A054D
:1027A0001092890510928805109287056C817D81B1
:1027B0008E819F810E9481279B01A3E5B7E00E9443
:1027C000872620EFC22ED12CE12CF12CA7019601F7
:1027D0000E946526688179818A819B81A9010E9476
:1027E000F0120E9425049093860580938505E09160
:1027F0008C05F0918D05809187059091880533E0D7
:10280000880F991F3A95E1F7E80FF91F64817581E8
:10281000868197810E9481279B01A3E5B7E00E94F2
:102820008726A70196010E94652630938405209390
:10283000830597CF81E08093090568E070E088E523
:1028400093E00E94A31308950E940E0510920805BC
:1028500068E070E088E193E00E94A313089581E0AE
:102860008093080568E070E088ED92E00E94A31371
:10287000089562E070E087EC92E00E94A3132FEFCE
:1028800081EE94E0215080409040E1F700C00000CC
:102890000E94E704609192056E7F6093920587E045
:1028A00090E00E94FF250895609192056160609319
:1028B000920587E090E00E94FF2562E070E087EBE0
:1028C00092E00E94A3130895CF93DF930E94200DFE
:1028D0000E940E050E942504EC0163E070E084E094
:1028E00091E00E94A313CE010E9416048A3F910535
:1028F00028F00E94E704DF91CF9108958FE99FE0CF
:102900000197F1F700C00000EECF0E94641488E147
:102910009CE00FB6F894A895809360000FBE90934A
:102920006000FFCF0E9414054FEF5FEF0E94F0128E
:102930000895B0E0A0E0EFE9F4E10C944B256B01C1
:102940007C0120E030E0A9010E94032787FF04C03A
:10295000F7FAF094F7F8F09480919005882309F441
:1029600058C080919105811102C00E94AA1208E905
:1029700015E0C7E0D0E0A7019601F80162AD73ADA4
:1029800084AD95AD0E94032781113CC083E0CC0F3C
:10299000DD1F8A95E1F7C856DA4F1982188280E068
:1029A00090E0A0E8BFEB8A839B83AC83BD831F824A
:1029B0001E82AC01BD01F5E0C03DDF0789F4C1E036
:1029C000C093FF048091D80581508093D805811170
:1029D00020C00E948804C093D7021092900519C0AD
:1029E00088E0FE013896DE0101900D928A95E1F7AC
:1029F000198618864A875B876C877D871F861E86A7
:102A00002896D9CF219708501109CF3FDC0709F04C
:102A1000B2CFCDB7DEB7E8E00C946725A3E2B0E013
:102A2000E4E1F5E10C9443258C01DC0114968C91D2
:102A30001497882309F4BAC021E04C9111965C9157
:102A4000119712966C91129713967C911397159685
:102A50009C910E946A0C7C01F8012581222309F4D3
:102A60003EC197578038910508F07EC6FFE0FE15FD
:102A700008F48CC08FEF93E00E94E125811186C09D
:102A800079EAA72EBB24B394E1104AC0FE01339625
:102A900086E0DF011D928A95E9F76AE0462E75010E
:102AA000BFEFEB1AFB0AC5010E94E12589831A8258
:102AB000882309F46BC0813009F07CC06501E2E035
:102AC000CE0ED11CC7010E94E1258A83882309F418
:102AD0005DC09FEF980F933088F5F3E0AF0EB11C07
:102AE000C6010E94E1258B83882309F44FC01C8214
:102AF000CE0101967C01D7012C91222381F2213055
:102B000009F098C011969C91119712968C91913072
:102B100009F052C0B2E0EB0EF11C0E940C1153C040
:102B2000A11424E0B20691F1C5010E94E1258111B2
:102B300001C0EA943FEFA31AB30AA6CF560184302E
:102B4000B9F652E0E52EF12C56012FEFA21AB20A87
:102B5000C6010E94E125E1E0F0E0EC0FFD1FEE0D63
:102B6000FF1D8083882391F08C3741F4E2E0F0E090
:102B7000EC0FFD1FEE0DFF1D1082BACF3FEFE31AE1
:102B8000F30A650147E0E416F104F1F68091A5042B
:102B9000877061F0D80115968C91882339F0809167
:102BA000160582FF03C082E00E946408A396E0E15C
:102BB0000C945F2557019CCF923049F4E2E0EE0E71
:102BC000F11C0E9460109FEFE91AF90A94CF93302C
:102BD00031F4F2E0EF0EF11C0E940F10F4CF9430AC
:102BE00021F02FEFE21AF20AEECF32E0E30EF11CF1
:102BF00030E020E0B7016F5F7F4FD70111964C9115
:102C00008053990B8A30910550F021503109D8F248
:102C1000EFE9FFE03197F1F700C00000F6CF429EE8
:102C2000F001439EF00D11249C012E0F3F1F842FB5
:102C30007B01E0CFE22FF0E0EF5CFD4F5490822F5C
:102C400086958695869590E0FC01EF5DFD4F64903A
:102C50002770712C022E02C0759467940A94E2F7D3
:102C600031E063227724FC01EF5EFD4F8490912CCC
:102C7000022E02C0959487940A94E2F741E08422E0
:102C80009924FC01EF5FFD4FC490D12C02C0D59474
:102C9000C7942A95E2F781E0C822DD24611471040B
:102CA00019F081EE0E9460108114910419F086EEF3
:102CB0000E946010852D0E940C118114910419F05E
:102CC00086EE0E940F106114710419F081EE0E94CB
:102CD0000F10C114D10409F476CF8CE21ECF8038D6
:102CE000944709F071C53091080531119BC080915E
:102CF0000905811197C0F701E851FC47E730F1055C
:102D000008F075C1E354F54D0C943425E4E9EE1652
:102D1000E4E7FE0699F48091950590E00196222360
:102D200011F369E070E00E9420258093950564E02E
:102D300070E08CE191E00E94A31328CFF5E9EF1633
:102D4000F4E7FF0639F4222371F28091950590E0B3
:102D50000896E7CF30E9E31634E7F30631F422238F
:102D600009F4C1CF0E942F1411CF41E9E41644E7C2
:102D7000F40631F4222309F4B6CF0E94241406CFBE
:102D800082E9E81684E7F80641F4809108052223D9
:102D900009F4A9CF8111F1CFE5CFE11491E7F9064C
:102DA00031F4222309F49FCF0E941A14EFCEA1E040
:102DB000EA16A1E7FA0651F4222309F494CF1092FF
:102DC000090568E070E08CE391E0B5CFB2E0EB1666
:102DD000B1E7FB0641F4222309F485CF8091090570
:102DE0008111EDCFE1CFE3E9EE16E4E7FE0609F04D
:102DF0007ACF222309F477CF0E940E0520911C027E
:102E000030E02F5F3F4F2370332720931C0248E2AE
:102E1000429FC001439F900D112465E070E08458EB
:102E20009E4F89CF222309F450C0F0EEEF16F10433
:102E300061F40E940E0581E0809389041092880459
:102E40001092F5041092F104A1CE42EEE416F104C2
:102E500071F40E940E0580918904882319F081E0A5
:102E600080938804109289041092F5048FCE83EE2B
:102E7000E816F10491F480918804882331F10E94CE
:102E80000E051092890481E08093F5041092F204FB
:102E90001092F4041092F30479CE92E5E916F1044D
:102EA00051F480918502909186020A979093860250
:102EB000809385026BCEA1E5EA16F10431F480918E
:102EC0008502909186020A96F1CF80911C028111B1
:102ED0000EC0F801418184E090E0841B9109D0800C
:102EE000F0E1DF0E4CE0849FD00C112411C0813042
:102EF00059F5D80111964C91119784E090E0841B0C
:102F00009109D82EDD0CDD0CD80E8C918D5CD80E7D
:102F1000222309F446C0332319F08D2D0E94921408
:102F200080918904882351F08091F104E82FF0E02A
:102F3000EF51FB4FD0828F5F8093F104FFEFEF16CC
:102F4000F10408F0D8CE22CE823059F4F801418144
:102F500084E090E0841B9109D080F3E3DF0E47E02A
:102F6000C2CF4CE0D42E833099F683E2EAE9F3E055
:102F7000DE01119601900D928A95E1F7D801EC914E
:102F8000EC0FFD2FF11D11964C9184E090E0841B15
:102F90009109D084BCE08B9FD00C1124E9E0DE0EB7
:102FA000B7CF332359F28D2D0E9414050E94991436
:102FB000C5CF26E241EE61EEC8010E942A11E6CD9E
:102FC00027E245EE65EEF8CF26E241EE60EEF4CF63
:102FD00027E245EE64EEF0CF26E241EE62EEECCF62
:102FE00027E245EE66EEE8CF28E241E0EBCFD801DC
:102FF00015968C91882309F4AAC310928205C70103
:103000009057839708F08DC384E090E00E94E925F3
:103010009093160580931505F701E150F047E232D1
:10302000F10520F4EC53F54D0C94342580911505F1
:1030300081608093150537C0809116058860809364
:10304000160531C0809115058260F3CF809115057A
:103050008460EFCF809115058860EBCF80911605D5
:103060008160EDCF809116058260E9CF80911505D2
:103070008061DFCF809115058062DBCF80911505DF
:103080008064D7CF0E94200D809115058068D1CF34
:10309000809115058C608093150564E070E08DE5E6
:1030A00092E00E94A313609115057091160584E0CB
:1030B00090E00E941D260E94200D68CD809116058B
:1030C00083608093160564E070E08DE392E0E9CFC1
:1030D000809115058E7FADCF80911605877FAFCF8C
:1030E000809115058D7FA5CF809115058B7FA1CF90
:1030F00080911505877F9DCF809116058E7F9FCF8C
:10310000809116058D7F9BCF809115058F7E91CF85
:10311000809115058F7D8DCF809115058F7B89CF8F
:103120000E94200D809115058F7783CF8091150522
:10313000837F8093150562E070E08DE292E0B1CF6D
:10314000809116058C7F8093160562E070E08DE11A
:1031500092E0A7CF8091150582FB992790F921E095
:10316000922790FB82F990FB83F98093150583FFEA
:10317000E2CF93CF80911605982F909591708E7F16
:10318000892B90FB81F98093160581FFDECF9BCFC1
:1031900090911505892F8F7B96FF80644ACF0E94FE
:1031A000200D90911505892F97FB87F9805841CF05
:1031B00061E08EE090E00E94FF2575CF60E0F9CFDE
:1031C00090911505892F8F7E94FF806132CF909169
:1031D0001505892F8E7F90FF81602BCF909116056A
:1031E000892F877F93FF88602ACF85E3ABC285E371
:1031F000B8C281E00E947B08D3C2B3E0EB16BCE703
:10320000FB0609F474C008F05CC0E114FCE7FF069B
:1032100009F469C021E0E2162CE7F20609F46DC05A
:10322000F8018581E080F180882309F474C0C7012A
:103230000E940B0CD82E682FC7010E94FD07B70112
:103240008D2D0E94FD0B0E943B067C01882ED8012B
:103250001596AC90159716969C9092943FE0932209
:103260008091A5048770F1F0CA2CAA20E1F08F2D7F
:10327000807F803451F080E28E0D883098F091107C
:1032800004C08F2D807E803269F08091160582FF08
:1032900009C082E00E9464088091A5048770CC2454
:1032A000C3948111C12CBF2CB2942FE0B222BBE099
:1032B000BB1508F498C0EB2DF0E0EA51F54D0C94E5
:1032C00034253BE5E3163CE7F30619F14CE5E4163B
:1032D0004CE7F406A1F08AE5E8168CE7F80609F059
:1032E0009FCF81E013C00E9464140E94130B6FEF04
:1032F0007FEF90E080E00E941D260E94851480915F
:10330000160582FB882780F991E089270E94A80C86
:1033100087CF80E0FBCFC7010E94C907D82E8FCF8F
:10332000EF2DEF70DE2E8F2D807F19F0D29490EF6D
:10333000D922AA20B9F0DD2069F080E28E0D883014
:1033400010F0811009C08091C804D82AD092C80416
:103350000E94CB0C8E2D45C08091C704D82AD092F4
:10336000C704F6CF8E2D0E940F10DD20E1F180E220
:103370008E0D883010F0811004C08D2D0E945907E9
:1033800006C0D0948091C704D822D092C7040E946E
:10339000CB0C29C0FF2DFF70DF2E8F2D807F803258
:1033A00019F0D29480EFD822882059F021E08216BB
:1033B00009F481C0AA2009F48DC0992009F44FC0F6
:1033C000C9CF8091160582FD46C0AA20F1F1DD200B
:1033D00039F08091C804D82AD092C8040E94CB0C3E
:1033E00080E00E946010AB2DA850BB0B149710F426
:1033F0000E947B04CC20A9F08091A50480FD11C01F
:10340000F80115828695869586950E947B08C801ED
:103410000E940E158091A5048695869586950E943A
:10342000570820E0D8014C9111965C9111971296A3
:103430006C91129713967C91139714968C91149714
:1034400015969C910E946A0CB1CB80E00E940F10EF
:10345000DD2049F292CFAA20A1F0911004C08D2D59
:103460000E940510C0CF31E09312BDCF8091C604F9
:103470009D2D9823D91609F4B6CFD82AD092C60428
:10348000B2CF9110B0CF8D2D0E94FE0F9091C60447
:103490008D2D892329F08D2D809589238093C60455
:1034A00080918B049D2D982309F49DCFD094D82230
:1034B000D0928B0498CFAA2029F045E0491508F452
:1034C00092CFCDCF84E0891508F48DCF8D2D0E9449
:1034D000FE0F89CF9920D1F399E3891209C0AFEF8C
:1034E000B7EEE3E0A150B040E040E1F700C00000DB
:1034F0008E2D0E940F1077CF8F2D86958695837025
:1035000061F0813009F06FCFC7019370A11002C044
:1035100080E090E00E94310466CFC7019370A11053
:1035200002C080E090E00E9456045DCF8F2D837032
:1035300091F5A11058CF4E2D429546954770440FF6
:10354000440F8E2D8F70042E01C0880F0A94EAF765
:103550002E2D2071E4FE07C02FE030E001C0220FC5
:103560004A95EAF720953F2D3695369533703230DF
:1035700069F050F44091C904313029F0822B842342
:103580000E94870830CF842B822BFACF282B809182
:10359000C9048227F5CF8695AA2011F08F2D81705E
:1035A000882309F420CF4E2D429546954770440F4D
:1035B000440F8E2D8F70042E01C0880F0A94EAF7F5
:1035C0002E2D2071E4FE07C02FE030E001C0220F55
:1035D0004A95EAF720953F2D36953695337032306F
:1035E00069F050F44091D704313029F0822B8423C4
:1035F0000E943408F8CE842B822BFACF282B80919E
:10360000D7048227F5CFFF2DFF70FF2EAA2029F0C7
:103610008F2F0E947B088E2D23CF8E2D0E94FE0FB0
:103620008F2D0E945708DFCE8E2D22EF8216B1F12A
:10363000281570F030EF8316D1F041EF841691F029
:10364000AA2009F45EC0911085CE8F2D8F712AC0FB
:1036500093EF891651F1A4EF8A12F2CF80911605EB
:1036600082FD2FC08F2D8F71AA20D9F21BC0AA20F6
:1036700081F0B4E0B91508F4B6CE2F2D2F7181E09A
:1036800090E001C0880F2A95EAF79091D704892726
:10369000AFCFE5E0E91508F4A6CEEFCF8F2D8F71FF
:1036A000A110BFCF0E947B089ECE80E0AA2009F423
:1036B0009FCF9F2D9F7181E001C0880F9A95EAF7F7
:1036C00097CFAA2099F0FF2DFF71FF2E8F2F0E9418
:1036D0007B088091160582FF07C028E0F29EC0019A
:1036E000112483608093A5048F2DDCCF81E00E949C
:1036F000640831E0391508F076CE82E00E94640853
:1037000072CE992059F0893309F0F2CE4FEF87EE4F
:1037100093E0415080409040E1F7E8CE8F2D8F71CB
:1037200080CFB6E1EB16BCE7FB0609F03FC0809105
:10373000C8048A7A91E009F490E090938A04811198
:1037400054CD89E20E948B070E94CB0C1FCAE6E190
:10375000EE16ECE7FE06A9F480918A04811147CDAC
:1037600089E20E946007F0CFF0E8EF16F4E7FF0669
:10377000F1F1A1E8EA16A4E7FA0661F50E9439140E
:1037800005CA81E027E7E2162CE7F20639F082E06D
:1037900038E7E3163CE7F30609F042CD0E945708EC
:1037A00043E062E081E00E943708F0C947E7E41691
:1037B0004CE7F40609F41DCD88E7E8168CE7F80617
:1037C00009F01BCD82E016CD91E8E91694E7F906E1
:1037D00009F489CAB2E8EB16B4E7FB0609F096CA09
:1037E000222309F480CA8091920580FDC7CF0E94F0
:1037F0005414CCC9CF93DF938091A404807F09F047
:103800004DC08091A304882309F448C0E0917F054E
:1038100050914605C0919F04D0919E046091A004F0
:103820007091A10447E05E17C9F18E2F90E0E49FEC
:10383000F0011124E95BFA4F2481222391F1489F82
:10384000F001499FF00D1124DF01A95BBA4F1196D9
:103850002C9111972C1325C02C912D1322C0159655
:103860002C91159721111DC012962D913C91261B6C
:10387000370B283C3105A8F48091A4048F70806137
:103880008093A404E35BFA4F80818F708061808312
:103890008EE994E00E940E150E94BF07DF91CF9140
:1038A0000895FC013196E770BECFA4E1B0E0EBE5EE
:1038B000FCE10C9447258C0186E0F801DE011F969F
:1038C00001900D928A95E1F7F8018481E5809EE9E7
:1038D000A92E94E0B92E9091A204911128C08823BA
:1038E00019F1EE20F1F0C8010E94470CF82E882350
:1038F000C1F087E0F801D50101900D928A95E1F7BA
:103900008091A204813031F480919E0490919F04B3
:103910000E943A0C0E94FA1B8F2D6496ECE00C94E6
:103920006325C8010E940E15FF24F394F5CFD080C3
:10393000C18082809380F090A3042091A0043091F4
:10394000A104A401421B530BFF2009F4D9C0483C39
:10395000510508F092C08823F9F290919F0480915C
:10396000A404282F207F09F056C0C91214C09091DA
:103970009E04D91210C0E11048C08F7080618093FE
:10398000A4048EE994E00E940E158091A404F8012D
:103990008683F12CC1CFE11038C06C2D8D2D0E9493
:1039A00099026C2D8D2D0E949902E82E8111F1CF84
:1039B000DF86C88A8F8598890E943A0C292F229524
:1039C0002F70243058F49F70223088F0992399F09A
:1039D000F8019681907F79F4FE2C9ECF2A5F2F709C
:1039E000223068F0C8010E940E15EF2CF5CF992304
:1039F00011F0882389F3805E883070F3F3CF803F25
:103A000058F3815F833070F7E7CF8091A404816021
:103A10008093A404BECFC91207C090919E04D9120E
:103A200003C0EE2009F48DC0C8010E94470C882312
:103A300009F477CFEE2009F474CF8091A40480328A
:103A400088F020919E0430919F04398728879B86B7
:103A50008A869091A2049C871D868E87CE01089647
:103A60000E940E1587E0F801AEE9B4E001900D92D6
:103A70008A95E1F70E94FA1B57CF9091A404292F51
:103A8000207F51F48EE994E00E940E1587E0F50145
:103A900011928A95E9F77DCF882309F43DCF809173
:103AA0009F048C1110C080919E04D8120CC0E110AC
:103AB0000AC09683C8010E940E1587E0F501119295
:103AC0008A95E9F729CFC8010E94470C882309F499
:103AD00028CFEE2009F425CF8091A404803210F283
:103AE00020919E0430919F043A8329839C828B828B
:103AF0009091A2049D831E828F83CE010196B0CF48
:103B0000483C5105D0F6882309F40ECFFE2CEE2058
:103B100009F407CF80919F048C1120C080919E04EE
:103B2000D8121CC08091A40480FD0FC0982F907FF4
:103B300061F08683903F31F0982F907F905F8F7077
:103B4000892B8683C8010E940E1587E0F801AEE933
:103B5000B4E001900D928A95E1F7DECEC8010E9493
:103B6000470C81117FCF8091A40481608093A404CD
:103B7000C8010E940E15D0CEABE1B0E0E2ECFDE151
:103B80000C944F254E8B5F8B688F798F8A8F9B8F1C
:103B9000192F91111092C7041D8A86E0FE017696B6
:103BA000DE011F9601900D928A95E1F70A8D0023A0
:103BB00041F021E04F85588969897A89C8010E94BE
:103BC0006A0C0B8B1C8B87E0FE013F96DE0118967A
:103BD00001900D928A95E1F7CE0108960E94551C3E
:103BE00081110CC087E0FE013896DE01119601902C
:103BF0000D928A95E1F78C8581110BC017E08091B9
:103C00007F0590914605891331C06B96E4E00C94D2
:103C10006B252091460530E0C901019687709927F0
:103C200040917F054817190699F097E0929FD001BF
:103C3000939FB00D1124A95BBA4FFE0131960190FC
:103C40000D929A95E1F7809346050E94BF07D6CF63
:103C50000E94200D1092460510927F0587E0EEE944
:103C6000F4E0DF011D928A95E9F7C8CF819FC0017A
:103C70001124895B9A4F0E94551C882331F2809150
:103C80007F0590E001968770992780937F05B7CFD5
:103C9000A6E0B0E0EEE4FEE10C944F250E9425047E
:103CA0008C018091CA049091CB048017910781F018
:103CB00019821A820E942504682F49815A81792F1E
:103CC00080E090E00E94BC1D1093CB040093CA04D6
:103CD0002696E4E00C946B251F920F920FB60F927C
:103CE00011242F933F934F935F936F937F938F9301
:103CF0009F93AF93BF93CF93DF93EF93FF93D091B5
:103D0000E900DF708091EC00C82FC17080FDC0E831
:103D10001092E9008091F000877F8093F000789402
:103D20000E94400D1092E9008091F000886080931D
:103D3000F000CD2BCF70C093E900FF91EF91DF91A0
:103D4000CF91BF91AF919F918F917F916F915F9133
:103D50004F913F912F910F900FBE0F901F9018958C
:103D60001F920F920FB60F9211242F933F934F93F0
:103D70005F936F937F938F939F93AF93BF93EF93D3
:103D8000FF938091E10082FF09C08091E20082FFF1
:103D900005C08091E1008B7F8093E1008091DA0083
:103DA00080FF24C08091D80080FF20C08091DA007D
:103DB0008E7F8093DA008091D90080FF9DC080E1E2
:103DC00089BD82E189BD09B400FEFDCF81E0809309
:103DD0003C0580911705811109C00E94B8020E941C
:103DE00059038091E20084608093E2008091E100B9
:103DF00080FF17C08091E20080FF13C08091E20035
:103E00008E7F8093E2008091E20080618093E200E7
:103E10008091D80080628093D80019BC85E080939F
:103E20003C058091E10084FF2BC08091E20084FF7B
:103E300027C080E189BD82E189BD89B5982F917045
:103E400080FFFBCF8091D8008F7D8093D800809138
:103E5000E1008F7E8093E1008091E2008F7E80936D
:103E6000E2008091E20081608093E20080913D0554
:103E7000882309F447C084E080933C0580913C0589
:103E80008091E10083FF27C08091E20083FF23C07F
:103E90008091E100877F8093E10082E080933C0580
:103EA00010923D058091E1008E7F8093E10080912A
:103EB000E2008E7F8093E2008091E2008061809337
:103EC000E20042E060E080E00E9427038091F00081
:103ED00088608093F000FF91EF91BF91AF919F9127
:103EE0008F917F916F915F914F913F912F910F90A3
:103EF0000FBE0F901F90189519BC10923C051092A0
:103F0000170574CF8091E30087FD93E090933C0503
:103F1000B5CF78941F921FB61F9211248F939F9351
:103F2000AF93BF938091110590911205A091130555
:103F3000B09114050196A11DB11D809311059093B8
:103F40001205A0931305B0931405BF91AF919F91F3
:103F50008F911F901FBE1F9018951F921FB61F9222
:103F600011248F939F93AF93BF938091100581117C
:103F700013C08091110590911205A0911305B09185
:103F800014054196A11DB11D809311059093120552
:103F9000A0931305B0931405BF91AF919F918F919A
:103FA0001F901FBE1F9018951F920F920FB60F9271
:103FB00011247F928F929F92AF92BF92CF92DF9205
:103FC000EF92FF920F931F932F933F934F935F9323
:103FD0006F937F938F939F93AF93BF93CF93DF9311
:103FE000EF93FF938091040590910505A09106053C
:103FF000B09107050196A11DB11D80930405909312
:104000000505A0930605B09307056091040570911E
:10401000050580910605909107050E94B0276B0168
:104020007C0120E030E040E85CE3609100057091A5
:10403000010580910205909103050E94C4289B010F
:10404000AC01C701B6010E94032787FDBDC01092D5
:104050000405109205051092060510920705709050
:104060008F0580919005811103C0772009F4A2C0CB
:104070000E9425046C01711023C080E0909190058E
:10408000782E9923A1F070909305711005C070905F
:104090009405711001C0782EC8E9D5E010E000E069
:1040A0008091D8058017110611F00CF00CC1809199
:1040B000FF04882309F47EC01092FF04782E7AC092
:1040C0000091850510918605C8010E941604C091D3
:1040D0008305D09184058C179D0778F2C8010E9452
:1040E00016047C01EC1AFD0AD0928605C092850563
:1040F0008090870590908805E4012196D0938805EB
:10410000C09387050E942504909397058093960598
:10411000C0908A05D0908B05CC15DD0548F08091C4
:104120008905882309F443C01092880510928705F9
:1041300000918C0510918D05C0918705D09188055F
:1041400080918E055E0163E0AA0CBB1C6A95E1F7C5
:10415000811158C0F40153E0EE0FFF1F5A95E1F7AB
:10416000E00FF11FD801AA0DBB1D2D913D914D917E
:104170005C9160817181828193810E94032781110A
:1041800041C081E080938E054FE050E060E070E038
:10419000CB010E94F01290928805809287058FE0F3
:1041A00090E09093840580938305872D67CF0E94CC
:1041B000E704712C8091900581119DC080918F053D
:1041C000811199C00E948804FF91EF91DF91CF91F6
:1041D000BF91AF919F918F917F916F915F914F911F
:1041E0003F912F911F910F91FF90EF90DF90CF9013
:1041F000BF90AF909F908F907F900F900FBE0F90C9
:104200001F90189510928E05F801EA0DFB1D648130
:104210007581868197810E9481279B01A3E5B7E084
:104220000E94872620EF30E040E050E00E946526A3
:1042300081E0C81AD10840EF842E912CA12CB12C1A
:104240002E153F05F0F0D0938805C0938705E21640
:10425000F306A8F5C9018E199F097C0183E0CC0FF4
:10426000DD1F8A95E1F7C00FD11F688179818A81AE
:104270009B81A7010E94F012F0928405E0928305D1
:1042800094CFCC15DD05F8F6E21AF30A2196FE016B
:1042900023E0EE0FFF1F2A95E1F7E00FF11F648185
:1042A0007581868197810E9481279B01A3E5B7E0F4
:1042B0000E948726A50194010E946526C1CFEE24A5
:1042C000E394F12CCBCFEE80FF80C70101978E3FA6
:1042D0009F4F68F4888199810E9416048E159F056E
:1042E00030F06A817B818C819D810E9499140F5FDF
:1042F0001F4F2896D5CE772009F466CF0E948A08F2
:104300000E94930461CFCDB7DEB7A6970FB6F8949D
:10431000DEBF0FBECDBF85B7806885BF85B780681B
:1043200085BF84B7877F84BF0FB6F894A895809126
:104330006000886180936000109260000FBE80E88A
:1043400090E00FB6F89480936100909361000FBEE7
:1043500081E395E090936704809366040E94B8021D
:104360000E9459038091E20084608093E200789477
:1043700080913C058823A1F01091E9001F70909175
:10438000EC00892F817090FD80E8182B1092E900D5
:104390008091E80083FD0E94400D1F701093E9009A
:1043A00082E084BD93E095BD9AEF97BD80936E0047
:1043B0000E948F0C811102C00E94BE0B80E90E94F6
:1043C000330585E90E94330585E30E94330586E3C2
:1043D0000E9433050AEF13E0D8018D918D018F3FC4
:1043E00011F00E943305B4E006301B07A9F788E0FE
:1043F000E7EFF4E0DF01282F1D922A95E9F7EFECB3
:10440000F4E0DF011D928A95E9F76E9A769A0E9490
:10441000BF0C811102C00E94391282E090E00E941C
:10442000E1258093D80484E090E00E94E9259093F0
:104430001605809315050E948711BFEFE6E7F1E0AE
:10444000B150E040F040E1F700C000000E94871149
:104450008091F70480FF08C06FEF7FEF90E080E06D
:104460000E941D260E94130B83E090E00E94E1252C
:104470000E9487080E94AA128DE792E090930D0592
:1044800080930C05E8E16E2E712CF0E15F2E442440
:10449000439480913C0512E1853009F498C00E9454
:1044A000871169EDA62E64E0B62E77EF872E74E0B3
:1044B000972ED401F501219131918D919D9144E088
:1044C000E13EF40709F48DC028173907A1F3312C18
:1044D000D4010D911D914D01F501C190D1905F0165
:1044E000C016D10659F1C026D126212CEE24E39422
:1044F000F12CC6018E219F21892BB1F029A23AA26D
:104500000E9425049CA38BA34DA291E098012E212B
:104510003F21232B09F490E09EA349A15AA16BA14E
:104520007CA18DA10E94BC1D2394EE0CFF1CFCE01D
:104530002F12DFCFF501329711830083339424E0EB
:104540003212C6CF8FB7F8944091110550911205E1
:1045500060911305709114058FBF49C080913C058F
:10456000843021F10E94E7041092100520E40FB678
:10457000F894A895609260000FBE2093600083B706
:10458000817F846083BF83B7816083BF789488957F
:1045900083B78E7F83BF0FB6F894A8958091600093
:1045A000886180936000109260000FBE80913B058F
:1045B000882369F00E948711E7EFF4E081919191DF
:1045C000892B09F00AC244E0EF3FF407B9F7809164
:1045D0003C05853009F4C2CF0E94200D0E947B0467
:1045E0005ECF2817390709F072CF0E94481E8091CC
:1045F000F5048823F9F08091F3049091F404009776
:1046000081F40E9425049093F4048093F304809134
:10461000F204282F30E0882309F448C0C90101972B
:1046200049C00E9416042091850230918602281705
:10463000390738F30E947B049091F604891769F0DA
:104640008093F6048FB7F8944091110550911205AC
:1046500060911305709114058FBF80913C058430E3
:1046600009F017CF83E08093E9008091E80082FF92
:1046700010CF8091E80090E085FF05C00E94D7022E
:104680008823D9F191E08091E8008B778093E8004E
:10469000992309F4FECE8981EFEFE80FE33108F0AA
:1046A00053C0F0E0EE50F54D0C9434258091F104A8
:1046B0008150990B40910805442399F02F513B4FAD
:1046C000D9011C918F519B4FFC0180810E941405E0
:1046D0000E94991480910805882319F0812F0E9467
:1046E00092148091F20490E001966091F10470E0E0
:1046F0000E9420258093F2049DCF00E210E0CE01BD
:1047000001967C018091E80085FD0AC08091E80057
:104710008B778093E8000E94D702882399F3B2CF69
:104720008091F100D7018D937D010150110951F75E
:10473000A9CF1A828CE08B8324C08A81823009F44D
:1047400062C128F4813061F08FEF89831AC0833011
:1047500009F18430C9F71B821C821D821E8211C0A0
:104760002FB7F8946091110570911205809113058F
:10477000909114052FBF0E943A256B837C838D8313
:104780009E8340E250E0BE016F5F7F4F82E00E9457
:10479000AD0A7FCE2B81822F90E0FE013196225F01
:1047A0008430910570F7DC01AA0FBB1FA950BB4FE5
:1047B0003C9111964C914383348301963296281391
:1047C000EFCFDFCF8A81823099F0853009F0BCCFFE
:1047D0008B818111D6CFEFE3FCE93197F1F700C06F
:1047E000000063E070E087E892E00E94A313C9CF65
:1047F0006B817C818D819E810E943A2588E290E0C8
:104800000E94FF25BECF4C816B818A810E94CE0B16
:104810009827892798279E838D83B3CF2D813E814A
:104820003227232732274C816B818A810E94470BD4
:10483000A8CF0E946D0BA5CF9A81943009F084CF48
:104840008830F1F0893061F18B81813069F08230FC
:1048500009F097CF91E08C81811101C090E08091A7
:10486000920590FB81F909C091E08C81811101C012
:1048700090E08091920590FB80F98093920581CF22
:104880008B81813041F0823009F07BCF809192059D
:104890008695817003C08091920581708C8371CF61
:1048A0006091920587E090E0ABCF5A826ACF82E0B8
:1048B0008A8387E540CFEA80FB80FE24EF24FE2434
:1048C0008E010F5F1F4FCC80C00ED12ED11CC701AF
:1048D00087559E4FC016D10609F453CFF7E5EF1662
:1048E000F2E0FF0658F40E94E125D80114968C935B
:1048F000FFEFEF1AFF0A0F5F1F4FE9CFF801148295
:10490000F7CF0A811B81102701271027CE010196BE
:104910006C01EC80E00EF12EF11CC80187559E4F12
:10492000E016F10609F42DCF0735A2E01A0720F4AE
:10493000F60164810E94FF25FFEFCF1ADF0A0F5FA7
:104940001F4FEBCF0E94370B1CCF84E08A8319CF17
:10495000EA80FB80FE24EF24FE248E010F5F1F4FB0
:10496000CC80C00ED12ED11CC70189960C151D0517
:1049700009F407CF20E8E21621E0F20658F40E947D
:10498000E125D80114968C93FFEFEF1AFF0A0F5F11
:104990001F4FEACFF8011482F7CF0A811B8110273D
:1049A00001271027CE0101966C01EC80E00EF12E5C
:1049B000F11CC8018996E016F10609F4E2CE003830
:1049C000A1E01A0720F4F60164810E94FF25FFEFA1
:1049D000CF1ADF0A0F5F1F4FECCF59BC19BD09B4C6
:1049E00000FEFDCF8091D8008F7D8093D80080910C
:1049F000E00082608093E0008091E00081FDFCCFC8
:104A00000E94200DE4CD88E290E00E94E1251B8207
:104A10001C821D828E83B5CEAA1BBB1B51E107C031
:104A2000AA1FBB1FA617B70710F0A61BB70B881F3E
:104A3000991F5A95A9F780959095BC01CD010895CD
:104A400097FB072E16F4009407D077FD09D00E943B
:104A50000C2507FC05D03EF4909581959F4F089555
:104A6000709561957F4F0895EE0FFF1F0590F491AB
:104A7000E02D0994692796276927782787277827C3
:104A800008952F923F924F925F926F927F928F92F2
:104A90009F92AF92BF92CF92DF92EF92FF920F93CD
:104AA0001F93CF93DF93CDB7DEB7CA1BDB0B0FB6D7
:104AB000F894DEBF0FBECDBF09942A883988488894
:104AC0005F846E847D848C849B84AA84B984C8842A
:104AD000DF80EE80FD800C811B81AA81B981CE0F21
:104AE000D11D0FB6F894DEBF0FBECDBFED01089506
:104AF0008F929F92AF92BF92CF92DF92EF92FF92EE
:104B0000CF93DF93EC01688179818A819B81611564
:104B100071058105910521F464E279ED8BE597E05B
:104B20002DE133EF41E050E00E94332649015A0164
:104B30009B01AC01A7EAB1E40E9452266B017C0103
:104B4000ACEEB4EFA50194010E946026DC01CB011C
:104B50008C0D9D1DAE1DBF1DB7FF03C00197A109A0
:104B6000B04888839983AA83BB839F77DF91CF91D5
:104B7000FF90EF90DF90CF90BF90AF909F908F907D
:104B800008950E947825089580E091E00E9478259C
:104B90000895B0E0A0E08093000190930101A093FC
:104BA0000201B09303010895FB01DC0104C08D9163
:104BB0000190801921F441505040C8F7881B990B8F
:104BC0000895F999FECF92BD81BDF89A992780B5D5
:104BD0000895A8E1B0E042E050E00C942526DC0105
:104BE000A40FB51F4150504048F0CB01840F951FD2
:104BF0002E910E94002641505040D0F70895262F54
:104C0000F999FECF92BD81BDF89A019700B40216C2
:104C100039F01FBA20BD0FB6F894FA9AF99A0FBE70
:104C200008950396272F0E9400260E94FF25252F16
:104C30000E940026242F0C9400260196272F0E9404
:104C400000260C94FF25DC01CB01FC01F999FECF75
:104C500006C0F2BDE1BDF89A319600B40D92415004
:104C60005040B8F70895052E97FB1EF400940E945B
:104C70004A2657FD07D00E94652607FC03D04EF454
:104C80000C944A2650954095309521953F4F4F4FB3
:104C90005F4F089590958095709561957F4F8F4FE8
:104CA0009F4F08950E948726A59F900DB49F900D59
:104CB000A49F800D911D11240895B7FF0C945226D6
:104CC0000E945226821B930B0895A1E21A2EAA1B62
:104CD000BB1BFD010DC0AA1FBB1FEE1FFF1FA217AC
:104CE000B307E407F50720F0A21BB30BE40BF50BA9
:104CF000661F771F881F991F1A9469F76095709532
:104D0000809590959B01AC01BD01CF010895A29FB4
:104D1000B001B39FC001A39F700D811D1124911D8F
:104D2000B29F700D811D1124911D08955058BB270D
:104D3000AA270E94AE260C948A280E947C2838F06C
:104D40000E94832820F039F49F3F19F426F40C9434
:104D500079280EF4E095E7FB0C946528E92F0E9472
:104D60009B2858F3BA17620773078407950720F04A
:104D700079F4A6F50C94BD280EF4E0950B2EBA2F0D
:104D8000A02D0B01B90190010C01CA01A001112451
:104D9000FF27591B99F0593F50F4503E68F11A16FD
:104DA000F040A22F232F342F4427585FF3CF46958E
:104DB00037952795A795F0405395C9F77EF41F16B0
:104DC000BA0B620B730B840BBAF09150A1F0FF0F7A
:104DD000BB1F661F771F881FC2F70EC0BA0F621F66
:104DE000731F841F48F4879577956795B795F79556
:104DF0009E3F08F0B0CF9395880F08F09927EE0FEB
:104E00009795879508950E94412808F481E00895B8
:104E10000E941C270C948A280E94832858F00E9424
:104E20007C2840F029F45F3F29F00C94652851114B
:104E30000C94BE280C9479280E949B2868F399232F
:104E4000B1F3552391F3951B550BBB27AA27621786
:104E50007307840738F09F5F5F4F220F331F441F93
:104E6000AA1FA9F335D00E2E3AF0E0E832D09150C7
:104E70005040E695001CCAF72BD0FE2F29D0660FB4
:104E8000771F881FBB1F261737074807AB07B0E8F7
:104E900009F0BB0B802DBF01FF2793585F4F3AF0FD
:104EA0009E3F510578F00C9465280C94BE285F3F16
:104EB000E4F3983ED4F3869577956795B795F79583
:104EC0009F5FC9F7880F911D9695879597F908956B
:104ED000E1E0660F771F881FBB1F62177307840707
:104EE000BA0720F0621B730B840BBA0BEE1F88F716
:104EF000E09508950E9481276894B1110C94BE2812
:104F000008950E94A32888F09F5798F0B92F9927F9
:104F1000B751B0F0E1F0660F771F881F991F1AF0A4
:104F2000BA95C9F714C0B13091F00E94BD28B1E024
:104F300008950C94BD28672F782F8827B85F39F023
:104F4000B93FCCF3869577956795B395D9F73EF43D
:104F500090958095709561957F4F8F4F9F4F0895E5
:104F6000E89409C097FB3EF4909580957095619503
:104F70007F4F8F4F9F4F9923A9F0F92F96E9BB27B9
:104F80009395F695879577956795B795F111F8CF35
:104F9000FAF4BB0F11F460FF1BC06F5F7F4F8F4FA0
:104FA0009F4F16C0882311F096E911C0772321F096
:104FB0009EE8872F762F05C0662371F096E8862F2E
:104FC00070E060E02AF09A95660F771F881FDAF785
:104FD000880F9695879597F908950E947C2820F070
:104FE00019F00E94832850F40C9479280C94BE2860
:104FF000E92F0E949B2888F35523B1F3E7FB621742
:10500000730784079507A8F189F3E92FFF27882301
:105010002AF03197660F771F881FDAF7952F5527EB
:10502000442332F091505040220F331F441FD2F7D7
:10503000BB27E91BF50B621B730B840BB109B1F2A3
:1050400022F4620F731F841FB11D31972AF0660F7F
:10505000771F881FBB1FEFCF9150504062F041F087
:10506000882332F0660F771F881F91505040C1F798
:1050700093950C946B288695779567959F5FD9F7E4
:10508000F7CF990F0008550FAA0BE0E8FEEF1616B0
:105090001706E807F907C0F012161306E407F5072C
:1050A00098F0621B730B840B950B39F40A2661F0A0
:1050B000232B242B252B21F408950A2609F4A14043
:1050C000A6958FEF811D811D089597F99F6780E850
:1050D00070E060E008959F3F31F0915020F4879593
:1050E00077956795B795880F911D9695879597F950
:1050F00008959FEF80EC089500240A941616170671
:1051000018060906089500240A94121613061406B8
:1051100005060895092E0394000C11F4882352F01B
:10512000BB0F40F4BF2B11F460FF04C06F5F7F4FD3
:105130008F4F9F4F089557FD9058440F551F59F0BA
:105140005F3F71F04795880F97FB991F61F09F3F74
:1051500079F087950895121613061406551FF2CF9D
:105160004695F1DF08C0161617061806991FF1CFED
:1051700086957105610508940895E894BB27662714
:105180007727CB0197F908950E94D7280C948A2895
:105190000E947C2838F00E94832820F0952311F08B
:1051A0000C9465280C94792811240C94BE280E9434
:1051B0009B2870F3959FC1F3950F50E0551F629F98
:1051C000F001729FBB27F00DB11D639FAA27F00D60
:1051D000B11DAA1F649F6627B00DA11D661F829F87
:1051E0002227B00DA11D621F739FB00DA11D621F6C
:1051F000839FA00D611D221F749F3327A00D611D89
:10520000231F849F600D211D822F762F6A2F11246A
:105210009F5750409AF0F1F088234AF0EE0FFF1F9D
:10522000BB1F661F771F881F91505040A9F79E3FF4
:10523000510580F00C9465280C94BE285F3FE4F380
:10524000983ED4F3869577956795B795F795E7954A
:105250009F5FC1F7FE2B880F911D9695879597F953
:105260000895FA01EE0FFF1F309621053105A1F1D7
:105270006115710561F48038BFE39B0749F16894BB
:105280009038810561F08038BFEF9B0741F099238A
:105290004AF5FF3FE1053105210519F1E89408942D
:1052A000E795D901AA2329F4AB2FBE2FF85FD0F3DD
:1052B00010C0FF5F70F4A695E0F7F73950F019F0D1
:1052C000FF3A38F49F779F930DD00F9007FC9058CA
:1052D000089546F00C94792860E070E080E89FE340
:1052E00008954FE79F775F934F933F932F930E94CB
:1052F0002C2A2F913F914F915F910E94C4280C94CA
:10530000892929F416F00C9465280C94BD280C9476
:1053100079280E94A328A8F39638A0F707F80F92DF
:10532000E8942BE33AEA48EB5FE70E94DA280F9211
:105330000F920F924DB75EB70F920E94742AECEA5B
:10534000F0E00E94BB294F915F91EF91FF91E595AD
:10535000EE1FFF1F49F0FE57E0684427EE0F441F81
:10536000FA95E1F74195550B0E94EE290F9007FE43
:105370000C94E2290895DF93CF931F930F93FF922C
:10538000EF92DF927B018C01689406C0DA2EEF0168
:105390000E94D728FE01E894A59125913591459169
:1053A0005591A6F3EF010E94AE26FE019701A801D8
:1053B000DA9469F7DF90EF90FF900F911F91CF91F2
:1053C000DF9108959B01AC0160E070E080E89FE30D
:1053D0000C9408270C9465280C946B280E94A32831
:1053E000D8F39923C9F3940F511DA3F39150504062
:1053F00094F059F0882332F0660F771F881F915080
:105400005040C1F79E3F51052CF7880F911D96958E
:10541000879597F908955F3FACF0983E9CF0BB27C5
:10542000869577956795B79508F4B1609395C1F720
:10543000BB0F58F711F460FFE8CF6F5F7F4F8F4FBE
:105440009F4FE3CF0C94BE2816F00C946B280C945D
:10545000792868940C9465280E94A328A8F39923BE
:10546000C1F3AEF3DF93CF931F930F93FF92C92F36
:10547000DD2788232AF02197660F771F881FDAF728
:1054800020E030E040E85FEB9FE3883920F0803E89
:1054900038F021968F770E949726E4EDF0E004C063
:1054A0000E949726E1E0F1E00E94BB298B01BE013A
:1054B000EC01FB2E6F5771097595771F880B990BBF
:1054C0000E94B22728E132E741E35FE30E94D72838
:1054D000AF2D9801AE01FF900F911F91CF91DF91F9
:1054E0000E94AE260C948A28FA01DC01AA0FBB1F89
:1054F0009B01AC01BF5728F422273327442750785B
:1055000020C0B75190F4AB2F0024469537952795CE
:10551000011CA395D2F3002071F0220F331F441F0A
:10552000B395DAF30ED00C94962661307105A0E89D
:105530008A07B94630F49B01AC0166277727882794
:105540009078309621F020833183428353830895ED
:10555000F894FFCFBE08FB0801091309D809C00859
:10556000150A400A6F0A210E490EEC0F490EEC0F86
:105570007C0E9D0EEC0F9B0FA80FE417E817D917B0
:10558000E017EC17F017F4176818E71870182218CE
:10559000261874182A18781884183618E0183A183B
:1055A00088183E188C18C81842189018CF18481838
:1055B0009618AA182E187C18321880185E18A01891
:1055C000BA18D818DE181C186C18EE189019901913
:1055D000CA19CA197C1AF319F319F319961A031B7D
:1055E000141B141B99239D23E22303240E24192446
:1055F0001C241C241C24A423A423552457245B24EA
:0A5600008124A224A524A824CD24AF
:10560A000100000052D02445000000410000DC44A3
:10561A000000004152D0A4440000404100005C4414
:10562A00000080415C978A440000804152D0A44423
:10563A00000080410000DC44000080410000DC449E
:10564A00000000410AA7CF44000000415CFFB844B3
:10565A000000004152D0A444000000411FD59244EA
:10566A00000000415C978A440000004148F17644FA
:10567A000000004100005C440000004100005C445E
:10568A00000080411F1569440000804148F17644BA
:10569A000000804100D08244000080415C978A4427
:1056AA0000008041A4D024440000804100005C44F2
:1056BA00000080411FD59244000080415CFFC34432
:1056CA000000804100000000000000005CFF43442D
:1056DA00000080411FD59244000080410000DC4454
:1056EA000000804152D024450000804100000000A3
:1056FA000000000000005C440000804148F176444C
:10570A00000080415C978A44000080411FD5924482
:10571A000000804152D0A444000080410300005C94
:10572A00440000004100005C440000004100005CAD
:10573A00440000004100005C440000004148F1764A
:10574A00440000C04000005C440000C04048F176BC
:10575A00440000C04000005C440000C04048F176AC
:10576A00440000C04000005C440000C04048F1769C
:10577A00440000C04000005C440000C0401304EF35
:10578A000A1204E80A640052D0A44400000041004E
:10579A0000DC440000004152D02445000040415240
:1057AA00D0A444000000410000DC44000000415243
:1057BA00D024450000404100005C44000000410044
:1057CA0000DC44000000410000DC4400000041000D
:1057DA00005C44000000410100005C4400000041FC
:1057EA0048F17644000000415C978A440000004179
:1057FA001FD592440000004152D0A4440000004149
:10580A005CFFB844000000410AA7CF4400000041F1
:10581A000000DC44000000410000DC4400000041BC
:10582A000AA7CF44000000415CFFB84400000041D1
:10583A0052D0A444000000411FD592440000004108
:10584A005C978A440000004148F176440000004118
:10585A0000005C440000004100005C44000000417C
:10586A0048F17644000000415C978A4400000041F8
:10587A001FD592440000004152D0A44400000041C8
:10588A005CFFB844000000410AA7CF440000004171
:10589A000000DC440000004101320002040507094F
:1058AA000B0C0E1011131517181A1C1D1F21232477
:1058BA002628292B2D2F3032343537393B818283E4
:1058CA00E200E900EA00B500B600B700CD008301A6
:1058DA00CC008A01920194012102230224022502AA
:1058EA00260227022A02B300B4006F0070009F014B
:1058FA00CB019F02A00290953536F1F03067F4F59E
:10590A00F6F79496349744226DBD019B012E01430C
:10591A00045C047C043149803F5D8B803FF8BF8082
:10592A003FCAE1803F73ED803FCAE1803FF8BF8004
:10593A003F5D8B803F3149803F0000803FF16D7FA2
:10594A003F75EA7E3F4C827E3F833F7E3F84287EBE
:10595A003F833F7E3F4C827E3F75EA7E3FF16D7FFB
:06596A003F0000803F0039
:00000001FF
